{
  "address": "0xfCE997A8F5cCE6c428256E638fa0b9b041DbF9b2",
  "abi": [
    {
      "inputs": [
        {
          "internalType": "address",
          "name": "vrfCoordinatorV2",
          "type": "address"
        }
      ],
      "stateMutability": "nonpayable",
      "type": "constructor"
    },
    {
      "inputs": [],
      "name": "DeFaS_ContestISFull",
      "type": "error"
    },
    {
      "inputs": [],
      "name": "DeFaS_NotEnoughMoneyInYourWallet",
      "type": "error"
    },
    {
      "inputs": [],
      "name": "DeFaS__UpkeepNotNeeded",
      "type": "error"
    },
    {
      "inputs": [],
      "name": "DeFas_WinnerIsAlreadyAnnounced",
      "type": "error"
    },
    {
      "inputs": [
        {
          "internalType": "address",
          "name": "have",
          "type": "address"
        },
        {
          "internalType": "address",
          "name": "want",
          "type": "address"
        }
      ],
      "name": "OnlyCoordinatorCanFulfill",
      "type": "error"
    },
    {
      "anonymous": false,
      "inputs": [
        {
          "indexed": false,
          "internalType": "uint256",
          "name": "contestID",
          "type": "uint256"
        }
      ],
      "name": "ContestClosedNowChooseWinner",
      "type": "event"
    },
    {
      "anonymous": false,
      "inputs": [
        {
          "indexed": true,
          "internalType": "address",
          "name": "participant",
          "type": "address"
        },
        {
          "indexed": false,
          "internalType": "uint256",
          "name": "contestID",
          "type": "uint256"
        }
      ],
      "name": "ContestCreatedAndJoined",
      "type": "event"
    },
    {
      "anonymous": false,
      "inputs": [
        {
          "indexed": false,
          "internalType": "address",
          "name": "participant",
          "type": "address"
        },
        {
          "indexed": false,
          "internalType": "uint256",
          "name": "contestID",
          "type": "uint256"
        }
      ],
      "name": "ContestJoined",
      "type": "event"
    },
    {
      "anonymous": false,
      "inputs": [
        {
          "indexed": true,
          "internalType": "uint256",
          "name": "contestID",
          "type": "uint256"
        }
      ],
      "name": "ContestKickedOFF",
      "type": "event"
    },
    {
      "anonymous": false,
      "inputs": [
        {
          "indexed": false,
          "internalType": "enum DeFaS.DeFaSState",
          "name": "contestStatus",
          "type": "uint8"
        },
        {
          "indexed": false,
          "internalType": "uint256",
          "name": "contestID",
          "type": "uint256"
        }
      ],
      "name": "DeFasStatusOfContestUpdated",
      "type": "event"
    },
    {
      "anonymous": false,
      "inputs": [
        {
          "indexed": true,
          "internalType": "uint256",
          "name": "requestId",
          "type": "uint256"
        }
      ],
      "name": "LotteryRewardAnnounced",
      "type": "event"
    },
    {
      "anonymous": false,
      "inputs": [
        {
          "indexed": true,
          "internalType": "address",
          "name": "winner",
          "type": "address"
        },
        {
          "indexed": false,
          "internalType": "uint256",
          "name": "contestID",
          "type": "uint256"
        },
        {
          "indexed": true,
          "internalType": "uint256",
          "name": "prize",
          "type": "uint256"
        }
      ],
      "name": "MoneyAddedtoWinner",
      "type": "event"
    },
    {
      "anonymous": false,
      "inputs": [
        {
          "indexed": true,
          "internalType": "address",
          "name": "previousOwner",
          "type": "address"
        },
        {
          "indexed": true,
          "internalType": "address",
          "name": "newOwner",
          "type": "address"
        }
      ],
      "name": "OwnershipTransferred",
      "type": "event"
    },
    {
      "anonymous": false,
      "inputs": [
        {
          "indexed": false,
          "internalType": "address",
          "name": "participant",
          "type": "address"
        },
        {
          "indexed": false,
          "internalType": "uint256",
          "name": "amount",
          "type": "uint256"
        }
      ],
      "name": "WithDrawnSucessfull",
      "type": "event"
    },
    {
      "stateMutability": "payable",
      "type": "fallback"
    },
    {
      "inputs": [
        {
          "internalType": "uint256",
          "name": "contestID",
          "type": "uint256"
        },
        {
          "internalType": "address",
          "name": "winner",
          "type": "address"
        }
      ],
      "name": "AnnounceWinner",
      "outputs": [],
      "stateMutability": "nonpayable",
      "type": "function"
    },
    {
      "inputs": [
        {
          "internalType": "bytes",
          "name": "",
          "type": "bytes"
        }
      ],
      "name": "checkUpkeep",
      "outputs": [
        {
          "internalType": "bool",
          "name": "upkeepNeeded",
          "type": "bool"
        },
        {
          "internalType": "bytes",
          "name": "performData",
          "type": "bytes"
        }
      ],
      "stateMutability": "view",
      "type": "function"
    },
    {
      "inputs": [
        {
          "internalType": "uint256",
          "name": "",
          "type": "uint256"
        }
      ],
      "name": "contest",
      "outputs": [
        {
          "internalType": "uint256",
          "name": "maxParticipant",
          "type": "uint256"
        },
        {
          "internalType": "uint256",
          "name": "entryFee",
          "type": "uint256"
        },
        {
          "internalType": "enum DeFaS.DeFaSState",
          "name": "currentContestStatus",
          "type": "uint8"
        },
        {
          "internalType": "uint256",
          "name": "startingTime",
          "type": "uint256"
        },
        {
          "internalType": "uint256",
          "name": "closingTime",
          "type": "uint256"
        }
      ],
      "stateMutability": "view",
      "type": "function"
    },
    {
      "inputs": [
        {
          "internalType": "uint256",
          "name": "_maxParticipant",
          "type": "uint256"
        },
        {
          "internalType": "uint256",
          "name": "_entryFee",
          "type": "uint256"
        },
        {
          "internalType": "uint256",
          "name": "_startingTime",
          "type": "uint256"
        },
        {
          "internalType": "uint256",
          "name": "_closingTime",
          "type": "uint256"
        }
      ],
      "name": "createContest",
      "outputs": [],
      "stateMutability": "nonpayable",
      "type": "function"
    },
    {
      "inputs": [],
      "name": "getBalance",
      "outputs": [
        {
          "internalType": "uint256",
          "name": "",
          "type": "uint256"
        }
      ],
      "stateMutability": "view",
      "type": "function"
    },
    {
      "inputs": [
        {
          "internalType": "uint256",
          "name": "contestID",
          "type": "uint256"
        }
      ],
      "name": "getContestFee",
      "outputs": [
        {
          "internalType": "uint256",
          "name": "",
          "type": "uint256"
        }
      ],
      "stateMutability": "view",
      "type": "function"
    },
    {
      "inputs": [
        {
          "internalType": "address",
          "name": "participant",
          "type": "address"
        }
      ],
      "name": "getContestsOfParticipant",
      "outputs": [
        {
          "internalType": "uint256[]",
          "name": "",
          "type": "uint256[]"
        }
      ],
      "stateMutability": "view",
      "type": "function"
    },
    {
      "inputs": [],
      "name": "getContractBalance",
      "outputs": [
        {
          "internalType": "uint256",
          "name": "",
          "type": "uint256"
        }
      ],
      "stateMutability": "view",
      "type": "function"
    },
    {
      "inputs": [
        {
          "internalType": "uint256",
          "name": "contestID",
          "type": "uint256"
        }
      ],
      "name": "getCurrentNumberofParticipant",
      "outputs": [
        {
          "internalType": "uint256",
          "name": "",
          "type": "uint256"
        }
      ],
      "stateMutability": "view",
      "type": "function"
    },
    {
      "inputs": [
        {
          "internalType": "uint256",
          "name": "contestID",
          "type": "uint256"
        }
      ],
      "name": "getMaxNumberofParticipant",
      "outputs": [
        {
          "internalType": "uint256",
          "name": "",
          "type": "uint256"
        }
      ],
      "stateMutability": "view",
      "type": "function"
    },
    {
      "inputs": [
        {
          "internalType": "uint256",
          "name": "contestID",
          "type": "uint256"
        }
      ],
      "name": "getParticipantInContestID",
      "outputs": [
        {
          "internalType": "address[]",
          "name": "",
          "type": "address[]"
        }
      ],
      "stateMutability": "view",
      "type": "function"
    },
    {
      "inputs": [
        {
          "internalType": "uint256",
          "name": "contestID",
          "type": "uint256"
        }
      ],
      "name": "getParticipantToRank",
      "outputs": [
        {
          "internalType": "uint256",
          "name": "",
          "type": "uint256"
        }
      ],
      "stateMutability": "view",
      "type": "function"
    },
    {
      "inputs": [
        {
          "internalType": "uint256",
          "name": "contestID",
          "type": "uint256"
        }
      ],
      "name": "getStatus",
      "outputs": [
        {
          "internalType": "enum DeFaS.DeFaSState",
          "name": "",
          "type": "uint8"
        }
      ],
      "stateMutability": "view",
      "type": "function"
    },
    {
      "inputs": [
        {
          "internalType": "uint256",
          "name": "contestID",
          "type": "uint256"
        }
      ],
      "name": "getWinner",
      "outputs": [
        {
          "internalType": "address",
          "name": "",
          "type": "address"
        }
      ],
      "stateMutability": "view",
      "type": "function"
    },
    {
      "inputs": [
        {
          "internalType": "uint256",
          "name": "contestID",
          "type": "uint256"
        }
      ],
      "name": "joinContest",
      "outputs": [],
      "stateMutability": "nonpayable",
      "type": "function"
    },
    {
      "inputs": [],
      "name": "owner",
      "outputs": [
        {
          "internalType": "address",
          "name": "",
          "type": "address"
        }
      ],
      "stateMutability": "view",
      "type": "function"
    },
    {
      "inputs": [
        {
          "internalType": "bytes",
          "name": "performData",
          "type": "bytes"
        }
      ],
      "name": "performUpkeep",
      "outputs": [],
      "stateMutability": "nonpayable",
      "type": "function"
    },
    {
      "inputs": [
        {
          "internalType": "uint256",
          "name": "requestId",
          "type": "uint256"
        },
        {
          "internalType": "uint256[]",
          "name": "randomWords",
          "type": "uint256[]"
        }
      ],
      "name": "rawFulfillRandomWords",
      "outputs": [],
      "stateMutability": "nonpayable",
      "type": "function"
    },
    {
      "inputs": [],
      "name": "renounceOwnership",
      "outputs": [],
      "stateMutability": "nonpayable",
      "type": "function"
    },
    {
      "inputs": [
        {
          "internalType": "enum DeFaS.DeFaSState",
          "name": "_status",
          "type": "uint8"
        },
        {
          "internalType": "uint256",
          "name": "contestID",
          "type": "uint256"
        }
      ],
      "name": "set",
      "outputs": [],
      "stateMutability": "nonpayable",
      "type": "function"
    },
    {
      "inputs": [
        {
          "internalType": "address",
          "name": "newOwner",
          "type": "address"
        }
      ],
      "name": "transferOwnership",
      "outputs": [],
      "stateMutability": "nonpayable",
      "type": "function"
    },
    {
      "inputs": [
        {
          "internalType": "uint256",
          "name": "amount",
          "type": "uint256"
        }
      ],
      "name": "withDrawYourMoney",
      "outputs": [],
      "stateMutability": "nonpayable",
      "type": "function"
    },
    {
      "stateMutability": "payable",
      "type": "receive"
    }
  ],
  "transactionHash": "0xf7cfb374a8e1c434e0b2b9b872adb9ba13873fffd72a7b19a801aba1e77907b2",
  "args": [
    "0x7a1BaC17Ccc5b313516C5E16fb24f7659aA5ebed"
  ],
  "numDeployments": 1,
  "solcInputHash": "7268139242fc964386fa1af339499a44",
  "bytecode": "0x60c06040523480156200001157600080fd5b5060405162003187380380620031878339818101604052810190620000379190620001fe565b80620000586200004c620000c860201b60201c565b620000d060201b60201c565b8073ffffffffffffffffffffffffffffffffffffffff1660808173ffffffffffffffffffffffffffffffffffffffff1681525050508073ffffffffffffffffffffffffffffffffffffffff1660a08173ffffffffffffffffffffffffffffffffffffffff16815250505062000230565b600033905090565b60008060009054906101000a900473ffffffffffffffffffffffffffffffffffffffff169050816000806101000a81548173ffffffffffffffffffffffffffffffffffffffff021916908373ffffffffffffffffffffffffffffffffffffffff1602179055508173ffffffffffffffffffffffffffffffffffffffff168173ffffffffffffffffffffffffffffffffffffffff167f8be0079c531659141344cd1fd0a4f28419497f9722a3daafe3b4186f6b6457e060405160405180910390a35050565b600080fd5b600073ffffffffffffffffffffffffffffffffffffffff82169050919050565b6000620001c68262000199565b9050919050565b620001d881620001b9565b8114620001e457600080fd5b50565b600081519050620001f881620001cd565b92915050565b60006020828403121562000217576200021662000194565b5b60006200022784828501620001e7565b91505092915050565b60805160a051612f2a6200025d6000396000610c710152600081816109a201526109f60152612f2a6000f3fe6080604052600436106101395760003560e01c80636ea8a1b0116100ab5780639107ec2b1161006f5780639107ec2b146104fd5780639d1c0bc61461053a578063ab90b8151461057b578063d4cb0917146105a4578063e21bc47a146105cd578063f2fde38b1461060a57610195565b80636ea8a1b0146104165780636f9fb98a14610453578063715018a61461047e5780637e7ac61c146104955780638da5cb5b146104d257610195565b80634863b3c1116100fd5780634863b3c1146102cf57806348ab5e6c1461030c5780634dfa6854146103355780635c622a0e146103725780635d6e6c7c146103af5780636e04ff0d146103d857610195565b8063116794a3146101ec57806312065fe0146102155780631fe543e3146102405780634129b2c9146102695780634585e33b146102a657610195565b366101955734600460003373ffffffffffffffffffffffffffffffffffffffff1673ffffffffffffffffffffffffffffffffffffffff168152602001908152602001600020600082825461018d9190611df9565b925050819055005b34600460003373ffffffffffffffffffffffffffffffffffffffff1673ffffffffffffffffffffffffffffffffffffffff16815260200190815260200160002060008282546101e49190611df9565b925050819055005b3480156101f857600080fd5b50610213600480360381019061020e9190611ecb565b610633565b005b34801561022157600080fd5b5061022a610959565b6040516102379190611f1a565b60405180910390f35b34801561024c57600080fd5b506102676004803603810190610262919061208e565b6109a0565b005b34801561027557600080fd5b50610290600480360381019061028b91906120ea565b610a60565b60405161029d9190612126565b60405180910390f35b3480156102b257600080fd5b506102cd60048036038101906102c8919061219c565b610a9d565b005b3480156102db57600080fd5b506102f660048036038101906102f191906120ea565b610da8565b6040516103039190611f1a565b60405180910390f35b34801561031857600080fd5b50610333600480360381019061032e919061220e565b610dd7565b005b34801561034157600080fd5b5061035c600480360381019061035791906120ea565b610e69565b6040516103699190611f1a565b60405180910390f35b34801561037e57600080fd5b50610399600480360381019061039491906120ea565b610ece565b6040516103a691906122c5565b60405180910390f35b3480156103bb57600080fd5b506103d660048036038101906103d191906120ea565b610f0a565b005b3480156103e457600080fd5b506103ff60048036038101906103fa9190612395565b611248565b60405161040d929190612478565b60405180910390f35b34801561042257600080fd5b5061043d600480360381019061043891906120ea565b611428565b60405161044a9190611f1a565b60405180910390f35b34801561045f57600080fd5b50610468611448565b6040516104759190611f1a565b60405180910390f35b34801561048a57600080fd5b50610493611450565b005b3480156104a157600080fd5b506104bc60048036038101906104b791906120ea565b611464565b6040516104c99190611f1a565b60405180910390f35b3480156104de57600080fd5b506104e7611493565b6040516104f49190612126565b60405180910390f35b34801561050957600080fd5b50610524600480360381019061051f91906124a8565b6114bc565b6040516105319190612593565b60405180910390f35b34801561054657600080fd5b50610561600480360381019061055c91906120ea565b611553565b6040516105729594939291906125b5565b60405180910390f35b34801561058757600080fd5b506105a2600480360381019061059d9190612608565b6115a6565b005b3480156105b057600080fd5b506105cb60048036038101906105c691906120ea565b6118fc565b005b3480156105d957600080fd5b506105f460048036038101906105ef91906120ea565b611ac4565b604051610601919061272d565b60405180910390f35b34801561061657600080fd5b50610631600480360381019061062c91906124a8565b611b65565b005b61063b611be8565b600073ffffffffffffffffffffffffffffffffffffffff166003600084815260200190815260200160002060009054906101000a900473ffffffffffffffffffffffffffffffffffffffff1673ffffffffffffffffffffffffffffffffffffffff16146106d4576040517f351050db00000000000000000000000000000000000000000000000000000000815260040160405180910390fd5b806003600084815260200190815260200160002060006101000a81548173ffffffffffffffffffffffffffffffffffffffff021916908373ffffffffffffffffffffffffffffffffffffffff16021790555060006002838154811061073c5761073b61274f565b5b90600052602060002090600502016001015490506000600560008581526020019081526020016000208054905090506064605a828461077b919061277e565b610785919061277e565b61078f91906127ef565b600460008573ffffffffffffffffffffffffffffffffffffffff1673ffffffffffffffffffffffffffffffffffffffff16815260200190815260200160002060008282546107dd9190611df9565b92505081905550600081600186815481106107fb576107fa61274f565b5b90600052602060002001546108109190612820565b905060006005600087815260200190815260200160002082815481106108395761083861274f565b5b9060005260206000200160009054906101000a900473ffffffffffffffffffffffffffffffffffffffff169050606460088486610876919061277e565b610880919061277e565b61088a91906127ef565b600460008373ffffffffffffffffffffffffffffffffffffffff1673ffffffffffffffffffffffffffffffffffffffff16815260200190815260200160002060008282546108d89190611df9565b925050819055506064605a84866108ef919061277e565b6108f9919061277e565b61090391906127ef565b8573ffffffffffffffffffffffffffffffffffffffff167f2ff56d33cf34b356c98b045f5a23273f324bb628e3ff37283bbdf7031282ac73886040516109499190611f1a565b60405180910390a3505050505050565b6000600460003373ffffffffffffffffffffffffffffffffffffffff1673ffffffffffffffffffffffffffffffffffffffff16815260200190815260200160002054905090565b7f000000000000000000000000000000000000000000000000000000000000000073ffffffffffffffffffffffffffffffffffffffff163373ffffffffffffffffffffffffffffffffffffffff1614610a5257337f00000000000000000000000000000000000000000000000000000000000000006040517f1cf993f4000000000000000000000000000000000000000000000000000000008152600401610a49929190612851565b60405180910390fd5b610a5c8282611c66565b5050565b60006003600083815260200190815260200160002060009054906101000a900473ffffffffffffffffffffffffffffffffffffffff169050919050565b6000610ab760405180602001604052806000815250611248565b50905080610af1576040517f6980336b00000000000000000000000000000000000000000000000000000000815260040160405180910390fd5b6000610b4084848080601f016020809104026020016040519081016040528093929190818152602001838380828437600081840152601f19601f82011690508083019250505050505050611cae565b905060006002811115610b5657610b5561224e565b5b60028281548110610b6a57610b6961274f565b5b906000526020600020906005020160020160009054906101000a900460ff166002811115610b9b57610b9a61224e565b5b03610c2057600160028281548110610bb657610bb561274f565b5b906000526020600020906005020160020160006101000a81548160ff02191690836002811115610be957610be861224e565b5b0217905550807f3ad50e86dcbe2b3267b7800ffa1a6f9c097a3769c7609f647affd6173f71c33660405160405180910390a2610da2565b6002808281548110610c3557610c3461274f565b5b906000526020600020906005020160020160006101000a81548160ff02191690836002811115610c6857610c6761224e565b5b021790555060007f000000000000000000000000000000000000000000000000000000000000000073ffffffffffffffffffffffffffffffffffffffff16635d3b1d307f4b09e658ed251bcafeebbc69400383d49f344ace09b9576fe248bb02c003fe9f610d3860036207a12060016040518663ffffffff1660e01b8152600401610cf79594939291906129f4565b6020604051808303816000875af1158015610d16573d6000803e3d6000fd5b505050506040513d601f19601f82011682018060405250810190610d3a9190612a5c565b9050807fb3f7e3b1a7b8d0241f10c5fc24b9d98e79e97464617998c9e200d0e11739f66f60405160405180910390a27f8f5c19b6affe57efa0aa90487f0e72248e760c7c155f354bdeef2f80293b3e6e82604051610d989190611f1a565b60405180910390a1505b50505050565b600060028281548110610dbe57610dbd61274f565b5b9060005260206000209060050201600001549050919050565b610ddf611be8565b8160028281548110610df457610df361274f565b5b906000526020600020906005020160020160006101000a81548160ff02191690836002811115610e2757610e2661224e565b5b02179055507f4eea6e9f272e25b125740916b98d7e64c1f1d8d0c1824738c577891c3ed8e1308282604051610e5d929190612a89565b60405180910390a15050565b6000600760003373ffffffffffffffffffffffffffffffffffffffff1673ffffffffffffffffffffffffffffffffffffffff1681526020019081526020016000208281548110610ebc57610ebb61274f565b5b90600052602060002001549050919050565b600060028281548110610ee457610ee361274f565b5b906000526020600020906005020160020160009054906101000a900460ff169050919050565b8060006002811115610f1f57610f1e61224e565b5b60028281548110610f3357610f3261274f565b5b906000526020600020906005020160020160009054906101000a900460ff166002811115610f6457610f6361224e565b5b14610fa4576040517f08c379a0000000000000000000000000000000000000000000000000000000008152600401610f9b90612b35565b60405180910390fd5b60028281548110610fb857610fb761274f565b5b906000526020600020906005020160000154600560008481526020019081526020016000208054905003611018576040517fbcdde2c100000000000000000000000000000000000000000000000000000000815260040160405180910390fd5b6002828154811061102c5761102b61274f565b5b906000526020600020906005020160010154600460003373ffffffffffffffffffffffffffffffffffffffff1673ffffffffffffffffffffffffffffffffffffffff1681526020019081526020016000205410156110b6576040517fe5aa595400000000000000000000000000000000000000000000000000000000815260040160405180910390fd5b600282815481106110ca576110c961274f565b5b906000526020600020906005020160010154600460003373ffffffffffffffffffffffffffffffffffffffff1673ffffffffffffffffffffffffffffffffffffffff168152602001908152602001600020600082825461112a9190612b55565b9250508190555060056000838152602001908152602001600020339080600181540180825580915050600190039060005260206000200160009091909190916101000a81548173ffffffffffffffffffffffffffffffffffffffff021916908373ffffffffffffffffffffffffffffffffffffffff160217905550600660003373ffffffffffffffffffffffffffffffffffffffff1673ffffffffffffffffffffffffffffffffffffffff1681526020019081526020016000208290806001815401808255809150506001900390600052602060002001600090919091909150557fb2d669cc4b32b7686a91dd73e65d7d7fdc92c84b2a7533ddead1e7a02d5b07f0338360405161123c929190612b89565b60405180910390a15050565b600060606000600280549050905060005b8181101561140b576002808111156112745761127361224e565b5b600282815481106112885761128761274f565b5b906000526020600020906005020160020160009054906101000a900460ff1660028111156112b9576112b861224e565b5b146113f857600281815481106112d2576112d161274f565b5b906000526020600020906005020160030154421180156113485750600060028111156113015761130061224e565b5b600282815481106113155761131461274f565b5b906000526020600020906005020160020160009054906101000a900460ff1660028111156113465761134561224e565b5b145b806113d95750600281815481106113625761136161274f565b5b906000526020600020906005020160040154421180156113d85750600160028111156113915761139061224e565b5b600282815481106113a5576113a461274f565b5b906000526020600020906005020160020160009054906101000a900460ff1660028111156113d6576113d561224e565b5b145b5b156113f75760019350836113ec82611ccb565b935093505050611423565b5b808061140390612bb2565b915050611259565b50826040518060200160405280600081525092509250505b915091565b600060056000838152602001908152602001600020805490509050919050565b600047905090565b611458611be8565b6114626000611cf4565b565b60006002828154811061147a5761147961274f565b5b9060005260206000209060050201600101549050919050565b60008060009054906101000a900473ffffffffffffffffffffffffffffffffffffffff16905090565b6060600660008373ffffffffffffffffffffffffffffffffffffffff1673ffffffffffffffffffffffffffffffffffffffff16815260200190815260200160002080548060200260200160405190810160405280929190818152602001828054801561154757602002820191906000526020600020905b815481526020019060010190808311611533575b50505050509050919050565b6002818154811061156357600080fd5b90600052602060002090600502016000915090508060000154908060010154908060020160009054906101000a900460ff16908060030154908060040154905085565b600084141580156115b8575060008314155b80156115c5575060008214155b80156115d2575060008114155b611611576040517f08c379a000000000000000000000000000000000000000000000000000000000815260040161160890612c92565b60405180910390fd5b82600460003373ffffffffffffffffffffffffffffffffffffffff1673ffffffffffffffffffffffffffffffffffffffff16815260200190815260200160002054101561168a576040517fe5aa595400000000000000000000000000000000000000000000000000000000815260040160405180910390fd5b82600460003373ffffffffffffffffffffffffffffffffffffffff1673ffffffffffffffffffffffffffffffffffffffff16815260200190815260200160002060008282546116d99190612b55565b9250508190555060026040518060a001604052808681526020018581526020016000600281111561170d5761170c61224e565b5b8152602001848152602001838152509080600181540180825580915050600190039060005260206000209060050201600090919091909150600082015181600001556020820151816001015560408201518160020160006101000a81548160ff021916908360028111156117845761178361224e565b5b02179055506060820151816003015560808201518160040155505060006002805490509050600560006001836117ba9190612b55565b8152602001908152602001600020339080600181540180825580915050600190039060005260206000200160009091909190916101000a81548173ffffffffffffffffffffffffffffffffffffffff021916908373ffffffffffffffffffffffffffffffffffffffff160217905550600660003373ffffffffffffffffffffffffffffffffffffffff1673ffffffffffffffffffffffffffffffffffffffff1681526020019081526020016000206001826118759190612b55565b90806001815401808255809150506001900390600052602060002001600090919091909150553373ffffffffffffffffffffffffffffffffffffffff167fa46fc5782a716ac286e5f6e29076cb2b095f616fcbf6cfed0f19eed61de200a86001836118e09190612b55565b6040516118ed9190611f1a565b60405180910390a25050505050565b80600460003373ffffffffffffffffffffffffffffffffffffffff1673ffffffffffffffffffffffffffffffffffffffff16815260200190815260200160002054101561197e576040517f08c379a000000000000000000000000000000000000000000000000000000000815260040161197590612d24565b60405180910390fd5b80600460003373ffffffffffffffffffffffffffffffffffffffff1673ffffffffffffffffffffffffffffffffffffffff16815260200190815260200160002060008282546119cd9190612b55565b9250508190555060003373ffffffffffffffffffffffffffffffffffffffff16826040516119fa90612d75565b60006040518083038185875af1925050503d8060008114611a37576040519150601f19603f3d011682016040523d82523d6000602084013e611a3c565b606091505b5050905080611a80576040517f08c379a0000000000000000000000000000000000000000000000000000000008152600401611a7790612dd6565b60405180910390fd5b8015611ac0577fd7fab281697cdba73181daa5dcaaeaa1a54a2973ddd3f693bfb6fefd78dfa7b03383604051611ab7929190612b89565b60405180910390a15b5050565b606060056000838152602001908152602001600020805480602002602001604051908101604052809291908181526020018280548015611b5957602002820191906000526020600020905b8160009054906101000a900473ffffffffffffffffffffffffffffffffffffffff1673ffffffffffffffffffffffffffffffffffffffff1681526020019060010190808311611b0f575b50505050509050919050565b611b6d611be8565b600073ffffffffffffffffffffffffffffffffffffffff168173ffffffffffffffffffffffffffffffffffffffff1603611bdc576040517f08c379a0000000000000000000000000000000000000000000000000000000008152600401611bd390612e68565b60405180910390fd5b611be581611cf4565b50565b611bf0611db8565b73ffffffffffffffffffffffffffffffffffffffff16611c0e611493565b73ffffffffffffffffffffffffffffffffffffffff1614611c64576040517f08c379a0000000000000000000000000000000000000000000000000000000008152600401611c5b90612ed4565b60405180910390fd5b565b600181600081518110611c7c57611c7b61274f565b5b602002602001015190806001815401808255809150506001900390600052602060002001600090919091909150555050565b600081806020019051810190611cc49190612a5c565b9050919050565b606081604051602001611cde9190611f1a565b6040516020818303038152906040529050919050565b60008060009054906101000a900473ffffffffffffffffffffffffffffffffffffffff169050816000806101000a81548173ffffffffffffffffffffffffffffffffffffffff021916908373ffffffffffffffffffffffffffffffffffffffff1602179055508173ffffffffffffffffffffffffffffffffffffffff168173ffffffffffffffffffffffffffffffffffffffff167f8be0079c531659141344cd1fd0a4f28419497f9722a3daafe3b4186f6b6457e060405160405180910390a35050565b600033905090565b6000819050919050565b7f4e487b7100000000000000000000000000000000000000000000000000000000600052601160045260246000fd5b6000611e0482611dc0565b9150611e0f83611dc0565b9250828201905080821115611e2757611e26611dca565b5b92915050565b6000604051905090565b600080fd5b600080fd5b611e4a81611dc0565b8114611e5557600080fd5b50565b600081359050611e6781611e41565b92915050565b600073ffffffffffffffffffffffffffffffffffffffff82169050919050565b6000611e9882611e6d565b9050919050565b611ea881611e8d565b8114611eb357600080fd5b50565b600081359050611ec581611e9f565b92915050565b60008060408385031215611ee257611ee1611e37565b5b6000611ef085828601611e58565b9250506020611f0185828601611eb6565b9150509250929050565b611f1481611dc0565b82525050565b6000602082019050611f2f6000830184611f0b565b92915050565b600080fd5b6000601f19601f8301169050919050565b7f4e487b7100000000000000000000000000000000000000000000000000000000600052604160045260246000fd5b611f8382611f3a565b810181811067ffffffffffffffff82111715611fa257611fa1611f4b565b5b80604052505050565b6000611fb5611e2d565b9050611fc18282611f7a565b919050565b600067ffffffffffffffff821115611fe157611fe0611f4b565b5b602082029050602081019050919050565b600080fd5b600061200a61200584611fc6565b611fab565b9050808382526020820190506020840283018581111561202d5761202c611ff2565b5b835b8181101561205657806120428882611e58565b84526020840193505060208101905061202f565b5050509392505050565b600082601f83011261207557612074611f35565b5b8135612085848260208601611ff7565b91505092915050565b600080604083850312156120a5576120a4611e37565b5b60006120b385828601611e58565b925050602083013567ffffffffffffffff8111156120d4576120d3611e3c565b5b6120e085828601612060565b9150509250929050565b600060208284031215612100576120ff611e37565b5b600061210e84828501611e58565b91505092915050565b61212081611e8d565b82525050565b600060208201905061213b6000830184612117565b92915050565b600080fd5b60008083601f84011261215c5761215b611f35565b5b8235905067ffffffffffffffff81111561217957612178612141565b5b60208301915083600182028301111561219557612194611ff2565b5b9250929050565b600080602083850312156121b3576121b2611e37565b5b600083013567ffffffffffffffff8111156121d1576121d0611e3c565b5b6121dd85828601612146565b92509250509250929050565b600381106121f657600080fd5b50565b600081359050612208816121e9565b92915050565b6000806040838503121561222557612224611e37565b5b6000612233858286016121f9565b925050602061224485828601611e58565b9150509250929050565b7f4e487b7100000000000000000000000000000000000000000000000000000000600052602160045260246000fd5b6003811061228e5761228d61224e565b5b50565b600081905061229f8261227d565b919050565b60006122af82612291565b9050919050565b6122bf816122a4565b82525050565b60006020820190506122da60008301846122b6565b92915050565b600080fd5b600067ffffffffffffffff821115612300576122ff611f4b565b5b61230982611f3a565b9050602081019050919050565b82818337600083830152505050565b6000612338612333846122e5565b611fab565b905082815260208101848484011115612354576123536122e0565b5b61235f848285612316565b509392505050565b600082601f83011261237c5761237b611f35565b5b813561238c848260208601612325565b91505092915050565b6000602082840312156123ab576123aa611e37565b5b600082013567ffffffffffffffff8111156123c9576123c8611e3c565b5b6123d584828501612367565b91505092915050565b60008115159050919050565b6123f3816123de565b82525050565b600081519050919050565b600082825260208201905092915050565b60005b83811015612433578082015181840152602081019050612418565b60008484015250505050565b600061244a826123f9565b6124548185612404565b9350612464818560208601612415565b61246d81611f3a565b840191505092915050565b600060408201905061248d60008301856123ea565b818103602083015261249f818461243f565b90509392505050565b6000602082840312156124be576124bd611e37565b5b60006124cc84828501611eb6565b91505092915050565b600081519050919050565b600082825260208201905092915050565b6000819050602082019050919050565b61250a81611dc0565b82525050565b600061251c8383612501565b60208301905092915050565b6000602082019050919050565b6000612540826124d5565b61254a81856124e0565b9350612555836124f1565b8060005b8381101561258657815161256d8882612510565b975061257883612528565b925050600181019050612559565b5085935050505092915050565b600060208201905081810360008301526125ad8184612535565b905092915050565b600060a0820190506125ca6000830188611f0b565b6125d76020830187611f0b565b6125e460408301866122b6565b6125f16060830185611f0b565b6125fe6080830184611f0b565b9695505050505050565b6000806000806080858703121561262257612621611e37565b5b600061263087828801611e58565b945050602061264187828801611e58565b935050604061265287828801611e58565b925050606061266387828801611e58565b91505092959194509250565b600081519050919050565b600082825260208201905092915050565b6000819050602082019050919050565b6126a481611e8d565b82525050565b60006126b6838361269b565b60208301905092915050565b6000602082019050919050565b60006126da8261266f565b6126e4818561267a565b93506126ef8361268b565b8060005b8381101561272057815161270788826126aa565b9750612712836126c2565b9250506001810190506126f3565b5085935050505092915050565b6000602082019050818103600083015261274781846126cf565b905092915050565b7f4e487b7100000000000000000000000000000000000000000000000000000000600052603260045260246000fd5b600061278982611dc0565b915061279483611dc0565b92508282026127a281611dc0565b915082820484148315176127b9576127b8611dca565b5b5092915050565b7f4e487b7100000000000000000000000000000000000000000000000000000000600052601260045260246000fd5b60006127fa82611dc0565b915061280583611dc0565b925082612815576128146127c0565b5b828204905092915050565b600061282b82611dc0565b915061283683611dc0565b925082612846576128456127c0565b5b828206905092915050565b60006040820190506128666000830185612117565b6128736020830184612117565b9392505050565b6000819050919050565b6000819050919050565b60008160001b9050919050565b60006128b66128b16128ac8461287a565b61288e565b612884565b9050919050565b6128c68161289b565b82525050565b6000819050919050565b600067ffffffffffffffff82169050919050565b6000819050919050565b600061290f61290a612905846128cc565b6128ea565b6128d6565b9050919050565b61291f816128f4565b82525050565b6000819050919050565b600061ffff82169050919050565b600061295861295361294e84612925565b6128ea565b61292f565b9050919050565b6129688161293d565b82525050565b6000819050919050565b600063ffffffff82169050919050565b60006129a361299e6129998461296e565b6128ea565b612978565b9050919050565b6129b381612988565b82525050565b6000819050919050565b60006129de6129d96129d4846129b9565b6128ea565b612978565b9050919050565b6129ee816129c3565b82525050565b600060a082019050612a0960008301886128bd565b612a166020830187612916565b612a23604083018661295f565b612a3060608301856129aa565b612a3d60808301846129e5565b9695505050505050565b600081519050612a5681611e41565b92915050565b600060208284031215612a7257612a71611e37565b5b6000612a8084828501612a47565b91505092915050565b6000604082019050612a9e60008301856122b6565b612aab6020830184611f0b565b9392505050565b600082825260208201905092915050565b7f5468697320436f6e74657374206973206e6f742061637469766520617420746860008201527f69732054696d6500000000000000000000000000000000000000000000000000602082015250565b6000612b1f602783612ab2565b9150612b2a82612ac3565b604082019050919050565b60006020820190508181036000830152612b4e81612b12565b9050919050565b6000612b6082611dc0565b9150612b6b83611dc0565b9250828203905081811115612b8357612b82611dca565b5b92915050565b6000604082019050612b9e6000830185612117565b612bab6020830184611f0b565b9392505050565b6000612bbd82611dc0565b91507fffffffffffffffffffffffffffffffffffffffffffffffffffffffffffffffff8203612bef57612bee611dca565b5b600182019050919050565b7f4d61785061727469636970616e742c456e747265654665652063616e206e6f7460008201527f206265207a65726f20616e6420616c736f2070726f766964652073746172746960208201527f6e6754696d6520616e6420636c6f73696e6754696d6520000000000000000000604082015250565b6000612c7c605783612ab2565b9150612c8782612bfa565b606082019050919050565b60006020820190508181036000830152612cab81612c6f565b9050919050565b7f796f7520646f6e2774206861766520616e792062616c616e636520696e20796f60008201527f75722077616c6c65740000000000000000000000000000000000000000000000602082015250565b6000612d0e602983612ab2565b9150612d1982612cb2565b604082019050919050565b60006020820190508181036000830152612d3d81612d01565b9050919050565b600081905092915050565b50565b6000612d5f600083612d44565b9150612d6a82612d4f565b600082019050919050565b6000612d8082612d52565b9150819050919050565b7f4661696c656420746f2073656e64204574686572000000000000000000000000600082015250565b6000612dc0601483612ab2565b9150612dcb82612d8a565b602082019050919050565b60006020820190508181036000830152612def81612db3565b9050919050565b7f4f776e61626c653a206e6577206f776e657220697320746865207a65726f206160008201527f6464726573730000000000000000000000000000000000000000000000000000602082015250565b6000612e52602683612ab2565b9150612e5d82612df6565b604082019050919050565b60006020820190508181036000830152612e8181612e45565b9050919050565b7f4f776e61626c653a2063616c6c6572206973206e6f7420746865206f776e6572600082015250565b6000612ebe602083612ab2565b9150612ec982612e88565b602082019050919050565b60006020820190508181036000830152612eed81612eb1565b905091905056fea26469706673582212203544c47da5e3c48052d7891d213568094cdd53d34995e780b2cabed4f938841564736f6c63430008110033",
  "devdoc": {
    "kind": "dev",
    "methods": {
      "owner()": {
        "details": "Returns the address of the current owner."
      },
      "performUpkeep(bytes)": {
        "details": "The input to this method should not be trusted, and the caller of the method should not even be restricted to any single registry. Anyone should be able call it, and the input should be validated, there is no guarantee that the data passed in is the performData returned from checkUpkeep. This could happen due to malicious keepers, racing keepers, or simply a state change while the performUpkeep transaction is waiting for confirmation. Always validate the data passed in.",
        "params": {
          "performData": "is the data which was passed back from the checkData simulation. If it is encoded, it can easily be decoded into other types by calling `abi.decode`. This data should not be trusted, and should be validated against the contract's current state."
        }
      },
      "renounceOwnership()": {
        "details": "Leaves the contract without owner. It will not be possible to call `onlyOwner` functions anymore. Can only be called by the current owner. NOTE: Renouncing ownership will leave the contract without an owner, thereby removing any functionality that is only available to the owner."
      },
      "transferOwnership(address)": {
        "details": "Transfers ownership of the contract to a new account (`newOwner`). Can only be called by the current owner."
      }
    },
    "version": 1
  },
  "userdoc": {
    "kind": "user",
    "methods": {
      "performUpkeep(bytes)": {
        "notice": "method that is actually executed by the keepers, via the registry. The data returned by the checkUpkeep simulation will be passed into this method to actually be executed."
      }
    },
    "version": 1
  },
  "storageLayout": {
    "storage": [
      {
        "astId": 180,
        "contract": "contracts/DeFaS.sol:DeFaS",
        "label": "_owner",
        "offset": 0,
        "slot": "0",
        "type": "t_address"
      },
      {
        "astId": 339,
        "contract": "contracts/DeFaS.sol:DeFaS",
        "label": "contestIDToRandomNumber",
        "offset": 0,
        "slot": "1",
        "type": "t_array(t_uint256)dyn_storage"
      },
      {
        "astId": 355,
        "contract": "contracts/DeFaS.sol:DeFaS",
        "label": "contest",
        "offset": 0,
        "slot": "2",
        "type": "t_array(t_struct(Contest)351_storage)dyn_storage"
      },
      {
        "astId": 359,
        "contract": "contracts/DeFaS.sol:DeFaS",
        "label": "Winner",
        "offset": 0,
        "slot": "3",
        "type": "t_mapping(t_uint256,t_address)"
      },
      {
        "astId": 363,
        "contract": "contracts/DeFaS.sol:DeFaS",
        "label": "participantBalance",
        "offset": 0,
        "slot": "4",
        "type": "t_mapping(t_address,t_uint256)"
      },
      {
        "astId": 368,
        "contract": "contracts/DeFaS.sol:DeFaS",
        "label": "contestIDToPlayers",
        "offset": 0,
        "slot": "5",
        "type": "t_mapping(t_uint256,t_array(t_address)dyn_storage)"
      },
      {
        "astId": 373,
        "contract": "contracts/DeFaS.sol:DeFaS",
        "label": "participantToContestPlayed",
        "offset": 0,
        "slot": "6",
        "type": "t_mapping(t_address,t_array(t_uint256)dyn_storage)"
      },
      {
        "astId": 378,
        "contract": "contracts/DeFaS.sol:DeFaS",
        "label": "participantToRanks",
        "offset": 0,
        "slot": "7",
        "type": "t_mapping(t_address,t_array(t_uint256)dyn_storage)"
      }
    ],
    "types": {
      "t_address": {
        "encoding": "inplace",
        "label": "address",
        "numberOfBytes": "20"
      },
      "t_array(t_address)dyn_storage": {
        "base": "t_address",
        "encoding": "dynamic_array",
        "label": "address[]",
        "numberOfBytes": "32"
      },
      "t_array(t_struct(Contest)351_storage)dyn_storage": {
        "base": "t_struct(Contest)351_storage",
        "encoding": "dynamic_array",
        "label": "struct DeFaS.Contest[]",
        "numberOfBytes": "32"
      },
      "t_array(t_uint256)dyn_storage": {
        "base": "t_uint256",
        "encoding": "dynamic_array",
        "label": "uint256[]",
        "numberOfBytes": "32"
      },
      "t_enum(DeFaSState)333": {
        "encoding": "inplace",
        "label": "enum DeFaS.DeFaSState",
        "numberOfBytes": "1"
      },
      "t_mapping(t_address,t_array(t_uint256)dyn_storage)": {
        "encoding": "mapping",
        "key": "t_address",
        "label": "mapping(address => uint256[])",
        "numberOfBytes": "32",
        "value": "t_array(t_uint256)dyn_storage"
      },
      "t_mapping(t_address,t_uint256)": {
        "encoding": "mapping",
        "key": "t_address",
        "label": "mapping(address => uint256)",
        "numberOfBytes": "32",
        "value": "t_uint256"
      },
      "t_mapping(t_uint256,t_address)": {
        "encoding": "mapping",
        "key": "t_uint256",
        "label": "mapping(uint256 => address)",
        "numberOfBytes": "32",
        "value": "t_address"
      },
      "t_mapping(t_uint256,t_array(t_address)dyn_storage)": {
        "encoding": "mapping",
        "key": "t_uint256",
        "label": "mapping(uint256 => address[])",
        "numberOfBytes": "32",
        "value": "t_array(t_address)dyn_storage"
      },
      "t_struct(Contest)351_storage": {
        "encoding": "inplace",
        "label": "struct DeFaS.Contest",
        "members": [
          {
            "astId": 341,
            "contract": "contracts/DeFaS.sol:DeFaS",
            "label": "maxParticipant",
            "offset": 0,
            "slot": "0",
            "type": "t_uint256"
          },
          {
            "astId": 343,
            "contract": "contracts/DeFaS.sol:DeFaS",
            "label": "entryFee",
            "offset": 0,
            "slot": "1",
            "type": "t_uint256"
          },
          {
            "astId": 346,
            "contract": "contracts/DeFaS.sol:DeFaS",
            "label": "currentContestStatus",
            "offset": 0,
            "slot": "2",
            "type": "t_enum(DeFaSState)333"
          },
          {
            "astId": 348,
            "contract": "contracts/DeFaS.sol:DeFaS",
            "label": "startingTime",
            "offset": 0,
            "slot": "3",
            "type": "t_uint256"
          },
          {
            "astId": 350,
            "contract": "contracts/DeFaS.sol:DeFaS",
            "label": "closingTime",
            "offset": 0,
            "slot": "4",
            "type": "t_uint256"
          }
        ],
        "numberOfBytes": "160"
      },
      "t_uint256": {
        "encoding": "inplace",
        "label": "uint256",
        "numberOfBytes": "32"
      }
    }
  }
}